:020000040800F2
:100000000348044B834202D0034B03B118477047A7
:100010007C0400207C040020000000000548064904
:100020000B1AD90F01EBA301491002D0034B03B106
:10003000184770477C0400207C040020000000006A
:1000400010B5064C237843B9FFF7DAFF044B13B120
:100050000448AFF300800123237010BD800400200A
:10006000000000002C91010808B5044B1BB10449A5
:100070000448AFF30080BDE80840CFE7000000006F
:10008000840400202C910108A3F5803A704700BF3A
:10009000154B002B08BF114B9D46FFF7F5FF0021C4
:1000A0008B460F461148124A121A14F06FFD0C4B82
:1000B000002B00D098470B4B002B00D09847002016
:1000C000002104000D000B4814F00CFD14F03AFD63
:1000D0002000290002F0A6FE14F00AFD000008002E
:1000E000000000000000000000000120800400204B
:1000F000300B0020114B010880B584B002AFA54B36
:100100001B78012B23D1A34B00221A70A24B1B6832
:10011000A14A43F0200313609F4B1B689E4A43F0A3
:10012000800313609C4B1B689B4A43F4006313607D
:10013000994B1B68984A43F480531360974BDB68D4
:10014000964A43F00103D36013F084F801E001F014
:1001500067FA12F023FF0346FB71FB79012B02D1F2
:100160008F4B01221A708E4B1B78012B40F00E81B1
:100170008B4B00221A7013F06DF8864B01221A7017
:10018000884B00221A64844B1B68834A23F02003A7
:100190001360814B1B68804A23F0800313607E4B01
:1001A0001B687D4A23F4006313607B4B1B687A4A0B
:1001B00023F480531360794BDB68784A03F0FE0325
:1001C000D36012F04FFF0346FB7101F0F9FC1E20D3
:1001D00003F07AFBFB79052B40F0D38013F03AF85B
:1001E0001E2003F071FB12F03DFF0346FB7101F08E
:1001F000A7FDFB790B2B40F0BD8013F02BF801F02D
:1002000083FE1E2003F060FB12F02CFF0346FB71FF
:10021000FB790B2B40F0A78013F01CF801F052FF84
:100220001E2003F051FB12F01DFF0346FB71FB790A
:100230000B2B40F0918013F00DF80F21032002F0FA
:10024000C9FB0346184614F0E9F90346564A136001
:1002500002F028F8322003F037FB12F003FF0346C8
:10026000FB71FB790C2B02D112F0F4FFD6E7FB797E
:10027000052BE2D112F0EEFF4C4B00221A700A233C
:10028000FB710F21032002F0A5FB0346184614F072
:10029000C5F90346444A1360FA79102300930223F8
:1002A0001021582013F0E2F802F092F8404B1B782E
:1002B0000133DAB23E4B1A701E2003F005FB3C4BB3
:1002C0001B78C82B3AD8384B1B683A49184614F0AB
:1002D000AFFB0346002B1FD0334B1B683649184633
:1002E00014F09CFB0346002B16D0304B1B780133D7
:1002F000DAB22E4B1A702D4B1B78962B0CD912F0BC
:10030000A9FF2B4B00221A7002F01CF912F0AAFE72
:100310000346052BF5D1F2E6254B1A78274BA3FBB4
:10032000021319090B469B000B449B00D31ADBB246
:10033000012BA6D1FB79013BFB71A2E71C4B0022EC
:100340001A7012F087FF02F057F94FF4FA6003F0C9
:10035000BBFA12F07FFF70E7FB790C2B7FF45EAFE6
:1003600012F078FF4BE7FB790C2B7FF448AF12F0CB
:1003700071FF35E7FB790C2B7FF432AF12F06AFF87
:100380001FE7FB790C2B7FF41CAFB8E600BF0837E2
:10039000BD4680BD1305002000040140002C014033
:1003A0001205002000040040E80500209C04002005
:1003B0009D04002000807C4400C08044CDCCCCCC87
:1003C00090B583B000AF78607B687E4A934240F07E
:1003D000E7807D4B1B78DBB2012B0FD17B4B1B7869
:1003E000DBB20133DBB2794A194611700A2B05D111
:1003F000764B00221A70744B00221A70042003F00E
:10040000E1F80346724A13600A21032002F0E2FA7F
:100410000346184614F002F903466E4A136000F0D2
:10042000ABFE6D4B1B78012B65D16C4B1B78002B01
:1004300061D100F005FB6A4B1B78012B01D100F064
:10044000DDFB00F0EDF9674B1B78002B11D1604B01
:100450001B6842F2AB62934205DC5D4B1B6841F2C4
:100460000C72934205DC002000F0B6F95B4B0122D0
:100470001A705D4B1B78012B38D1564B1B6801223B
:1004800014465A49184614F0DDFA0346002B01D1F0
:1004900000231C46E3B283F00103DBB2002B1ED124
:1004A0004C4B1B68012214465149184614F0ACFA13
:1004B0000346002B01D100231C46E3B283F0010365
:1004C000DBB2002B0BD1424B1B6842F2AB62934272
:1004D00005DC3F4B1B6841F20C72934206DC0020A6
:1004E00000F07AF93D4B01221A7004E0414B1B6881
:1004F000184600F071F9384B1B78002B49D13E4B60
:100500001B68184600F032FA3C4B1B78002B11D1C7
:100510002F4B1B683A4A13603A4B4FF000021A60A7
:10052000394B4FF000021A60384B00221A70334BDF
:1005300001221A70294B1B78002B2AD1254B1B68EE
:10054000184600F069F80346314A13602F4B1B78B8
:100550000133DAB22D4B1A702C4B1B78042B0AD9BD
:100560001B4B1B68184600F0A7F80346294A136086
:10057000264B00221A70264B1A68264B1B68D31A8A
:100580001C4A136000F04CF91A4B1B68184600F027
:1005900023F9124B1B78012B02D1002000F01CF92B
:1005A0000E4B1B78002B02D1642012F095FD02F057
:1005B000CFF90346104A136000F052F900BF0C3720
:1005C000BD4690BD7C060020D8050020D90500203E
:1005D000E0050020E8050020A0040020080000201D
:1005E000A104002005000020A804002000401C45B4
:1005F00000406745E4050020DC05002004000020E1
:100600000C00002050050020600500202805002077
:100610006C0500205805002090B583B000AF7860CD
:100620001E49786813F048FF03461A461C4B1A60AF
:100630001B4B1B681B4A12681146184613F03CFFFF
:1006400003461A46184B1A60184B1B6883F0004388
:10065000134A12681146184614F038F803461C462F
:10066000114B1B68124A12681146184614F02EF8F6
:1006700003461946204613F01FFF0346184614F0A0
:10068000EBF903460B4A1360054B1B68054A1360E0
:10069000084B1B6818460C37BD4690BD00C041454D
:1006A0003C050020600500204805002010000020C7
:1006B0001400002068050020B0B582B000AF78605B
:1006C0003D4B1B687A68D31A184613F0ABFF0346FC
:1006D0003A4A13603A4B1B68184613F007FC32A3E2
:1006E000D3E9002313F05AFC02460B461046194684
:1006F00013F08EFE0346324A1360314B1B681846D6
:1007000013F0F4FB04460D462C4B1B68184613F0FF
:10071000EDFB27A3D3E9002313F040FC02460B4670
:100720002046294613F084FA02460B461046194625
:1007300013F06EFE0346224A1360214B1B68214AC8
:1007400012681146184613F0B7FE03461A461E4BB0
:100750001A601B4B1B681B4A1360194B1B681B4A12
:1007600012681146184613F0B1FF03461C46164B9B
:100770001B68174A12681146184613F0A7FF034674
:100780001946204613F09AFE03461A46114B1A608A
:10079000104B1B68184614F05FF9034618460837DB
:1007A000BD46B0BDAFF300809A9999999999E93FF8
:1007B0009A9999999999C93F0C00002064050020E5
:1007C00034050020500500205C05002018000020A2
:1007D0001C0000202C05002080B582B000AF78609E
:1007E0007B68002B06DA0B4B01221A600A4B0022B1
:1007F0001A6005E0074B00221A60074B01221A60BD
:10080000786800F009F90246044B1A6400BF083703
:10081000BD4680BDB0812142B48121420004004028
:1008200080B483B000AF41F6F4237B607B685A420A
:100830000A4B1B689A4203DD7B685B42074A1360E0
:10084000064B1B687A689A4202DA044A7B68136096
:1008500000BF0C37BD4680BC704700BFE4050020D8
:1008600080B582B000AF4FF482637B60642012F0E9
:1008700013FB03461A46364B1A60354B1B68012B97
:1008800002D1344B01221A60314B1B68022B02D17A
:10089000304B02221A602F4B1B68012B14D12E4BB8
:1008A0001B6804332C4A13602C4B1B6804332B4AFF
:1008B00013602A4B1B687A689A4205D1254B0022A7
:1008C0001A60264B00221A60224B1B68022B14D19F
:1008D000214B1B68043B204A1360204B1B680433E8
:1008E0001E4A13601D4B1B687A689A4205D1194B4A
:1008F00000221A60194B00221A6012F081FB034695
:10090000012B0DD1144B42F210721A60144B1B785C
:10091000002B0CBF01230023DBB21A46104B1A70C8
:10092000104B1B78012B0ED10D4B1B78012B03D1E3
:100930000D4B00221A6006E0094B1B78002B02D1F8
:10094000094B01221A6000BF0837BD4680BD00BFB9
:10095000B0040020B40400200C000020B8040020E3
:10096000A0040020080000209001214290B585B02D
:1009700000AF7860224B1B78012B0BD1204B01225A
:100980001A700123FB731F4B00221A601E4B0022BA
:100990001A6001E00023FB731C4B1B680122144604
:1009A0001B49184614F04EF80346002B01D10023D2
:1009B0001C46E3B283F00103DBB2002B16D1134BCC
:1009C0001B68012214461349184614F01DF803460B
:1009D000002B01D100231C46E3B283F00103DBB2FC
:1009E000002B03D17B68B3F52F7F04DA044B01227F
:1009F0001A700123FB73FB7B18461437BD4690BD6C
:100A000008000020B4812142B0812142E805002085
:100A1000008022450000614580B485B000AF786059
:100A20007B68002B03DA7B685B42FB6001E07B683C
:100A3000FB60FB6818461437BD4680BC7047000059
:100A400080B500AF5E4B1B78002B40F09A805D4B69
:100A500041F6F5621A605C4B1B685C49184613F05E
:100A60002DFD03461846FFF7D7FD0346002B00DA9D
:100A70000733DB101A46564B1A60564B1B68184654
:100A800000F078FC0346544A1360524B1B6841F651
:100A90000D7293420ADC4F4B1B6841F6F561184614
:100AA00000F014FB03464D4A136006E04A4B1A68F7
:100AB000474B1B68D31A494A1360434B1B6848498C
:100AC000184613F0A1FF0346002B1FD03E4B1B68B6
:100AD0004449184613F0B6FF0346002B16D03D4B91
:100AE0001B6841F6C362934210DD3A4B1B6841F626
:100AF000267293420ADC3C4B1B684FF07E5118462D
:100B000013F0DCFC03461A46374B1A602E4B1B6869
:100B10003349184613F078FF0346002B1BD02A4BAD
:100B20001B683049184613F08DFF0346002B12D086
:100B30002D4B1B68184613F0D9F91FA3D3E90023E6
:100B400013F076F802460B461046194613F060FC87
:100B50000346254A1360244B1B682449184613F0AA
:100B600071FF0346002B0CD0154B01221A70204B4D
:100B700000221A70194B00221A601E4B41F659428E
:100B80001A60164B1B6840F6C412934203DD134BE8
:100B900040F6C4121A60114B1B68174A934202DADE
:100BA0000E4B154A1A600D4B1B681846FFF714FED2
:100BB00000BF80BDAFF300809A9999999999B93F88
:100BC000A10400200C000020E80500200060014581
:100BD0006C050020E005002058050020E4050020F9
:100BE0000000A54400003444BC0400200000484339
:100BF00005000020300500203CF6FFFF80B500AF67
:100C0000844B1B78002B40F03F81834B1B6883494A
:100C1000184613F017FF0346002B23D07E4B1B68AA
:100C20007F49184613F0F0FE0346002B1AD07D4B87
:100C30001B684FF00001184613F0F0FE0346002B2E
:100C400003D0794B01221A700CE0764B1B684FF0F1
:100C50000001184613F0F6FE0346002B02D0734B3A
:100C600001221A70714B1B78012B21D16A4B1B6832
:100C70006F49184613F0E6FE0346002B3DD0664B45
:100C80001B686C49184613F0BFFE0346002B34D096
:100C9000664B00221A70684B42F215221A60674BAD
:100CA0001B78012B29D9644B41F695721A6024E018
:100CB0005D4B1B78012B20D1574B1B685C491846B4
:100CC00013F0C0FE0346002B17D0534B1B68594945
:100CD000184613F099FE0346002B0ED0524B00220B
:100CE0001A70554B41F613521A60544B1B78012B66
:100CF00003D9514B41F655621A60514B1B684E4A5D
:100D000012681146184600F0A7FA03464D4A1360D0
:100D1000414B1B684C49184613F076FE0346002BE6
:100D20000ED03D4B1B684949184613F08BFE034615
:100D3000002B05D0414B1B780133DAB23F4B1A70C0
:100D4000354B1B684249184613F05EFE0346002BE4
:100D500032D0314B1B683F49184613F073FE0346EF
:100D6000002B29D0364B1B6841F69C02934223DDB1
:100D7000334B1B6842F2534293421DDC294B1B68E4
:100D80003549184613F05EFE0346002B14D0254B60
:100D90001B683249184613F037FE0346002B0BD070
:100DA000264B1B780133DAB2244B1A702C4B1B688C
:100DB00001332B4A136002E0294B00221A60284BB2
:100DC0001B68032B12DD134B01221A70254B0122E5
:100DD0001A70254B254A1A60254B264A1A60264B65
:100DE0004FF082421A60254B254A1A60154B1B684A
:100DF00041F20402934203DD124B41F204021A60F5
:100E0000104B1B681F4A934280F235810D4B1D4ADF
:100E10001A6030E105000020E80500200000614470
:100E200000808E4438050020440500204C05002039
:100E30000080724400C0854430050020C0040020BA
:100E4000E0050020E405002000D0594500B0294508
:100E50000040494500403A450000F0C10000F04123
:100E6000A4040020A8040020100000200000524329
:100E70001400002000001643180000201C00002071
:100E80000000024314ECFFFF7C4B1B78012B40F069
:100E9000F2807B4B1B68002B03D17A4B1B687A4A8C
:100EA00013607A4B1B681846FFF7B6FB0346784A77
:100EB0001360784B1B780133DAB2764B1A70754B9E
:100EC0001B78042B0AD96F4B1B681846FFF7F4FBFD
:100ED0000346714A13606F4B00221A70684B1B68FF
:100EE0000133674A1360664B1B68642B1BDD644B40
:100EF0001B68B3F5FA6F16DA634B1B6841F6A472F0
:100F0000934205DD604B1B68013B5F4A13600AE0BA
:100F10005D4B1B6841F6A372934204DC5A4B1B687D
:100F20000133594A1360564B1B68B3F5FA6F03DD62
:100F3000534B40F2D1721A60584B1B78002B40F093
:100F40009380574B1B8801339AB2554B1A80544BF0
:100F50001B88544AA2FB03125209642101FB02F2CE
:100F60009B1A9BB2002B28D14F4B1B684F49184648
:100F700013F0A4FA03461A464B4B1A604C4B1B68FD
:100F80004A49184613F09AFA03461A46484B1A6023
:100F9000484B1B684FF07C51184613F08FFA0346FC
:100FA0001A46444B1A60444B1B684049184613F0DC
:100FB00085FA03461A46404B1A603B4B1B683F4973
:100FC000184613F03FFD0346002B02D0364B3B4A38
:100FD0001A60374B1B683949184613F033FD034636
:100FE000002B02D0324B354A1A60324B1B68344911
:100FF000184613F027FD0346002B02D02D4B304A34
:101000001A602D4B1B682F49184613F01BFD034631
:10101000002B02D0284B2B4A1A60234B1B68274910
:10102000184613F0E7FC0346002B1DD0204B1B682D
:101030002249184613F0DEFC0346002B14D01D4B4A
:101040001B681F49184613F0D5FC0346002B0BD034
:10105000194B1B681B49184613F0CCFC0346002BA8
:1010600002D00E4B01221A70094B1A680A4B1B68FA
:10107000D31A154A136000BF80BD00BFA80400202A
:10108000AC040020E00500200C000020E805002052
:101090006C0500202805002058050020C104002010
:1010A000C20400201F85EB511000002000002041E9
:1010B00014000020180000201C0000200000C8437D
:1010C0000000A04100009643E405002090B583B0E5
:1010D00000AF786039607A683B68D31A184613F01D
:1010E000A1FA03461F4A13601E4B1B681E4A126872
:1010F0001146184613F0E0F903461C49184613F050
:10110000E5FA03461A49184613F094FB03461C46B9
:10111000144B1B681549184613F0D8FA03461449B6
:10112000184613F087FB03461946204613F0C6F90C
:1011300003461A460F4B1B681946104613F0BEF9BA
:1011400003461A460B4B1A60064B1B68064A13608F
:10115000084B1B68184613F07FFC034618460C37F3
:10116000BD4690BDC4040020C804002000002041FA
:101170000000A041CC04002080B500AF144B1B68D8
:101180000133134A1360124B1B68052B1DDD114BF5
:101190001B68114A12681146184613F08DF9034670
:1011A000184613F059FC0346184600F019F8034698
:1011B000184613F037FA0346084A1360054B1B68BC
:1011C000054A1360024B00221A6000BF80BD00BFB9
:1011D00054050020E80500204005002038050020C7
:1011E00080B487B000AF786000233B610123FB75BA
:1011F0000BE0FA7DFB7D013B164931F91210154ACF
:1012000022F81310FB7D0133FB75FB7D032BF0D916
:101210007B681AB20F4BDA800023FB750AE0FB7D76
:101220000C4A32F913301A463B6913443B61FB7D8B
:101230000133FB75FB7D032BF1D93B69002B00DAF1
:1012400003339B10FB81B7F90E3018461C37BD469F
:1012500080BC7047D0040020B0B582B000AF786089
:1012600039607A683B68D31A184613F0DBF90346F5
:10127000394A1360394B1B68184612F037FE32A307
:10128000D3E9002312F08AFE02460B4610461946A7
:1012900013F0BEF80346314A1360304B1B68184602
:1012A00012F024FE04460D462B4B1B68184612F024
:1012B0001DFE27A3D3E9002312F070FE02460B4661
:1012C0002046294612F0B4FC02460B461046194649
:1012D00013F09EF80346214A1360204B1B68204AF6
:1012E00012681146184613F0E7F803461A461D4BDC
:1012F0001A601A4B1B681A4A1360184B1B681A4A6B
:1013000012681146184613F0E1F903461C46154BC6
:101310001B68164A12681146184613F0D7F903469F
:101320001946204613F0CAF803461A46104B1A60B5
:101330000F4B1B68184613F08FFB034618460837FF
:10134000BD46B0BDAFF300809A9999999999E93F4C
:101350009A9999999999C93F64050020340500200C
:10136000500500205C050020180000201C00002013
:101370002C05002090B583B000AF78601D4B1B6832
:101380007A68D31A184613F04DF903461A4A1360C7
:10139000194B1B68194A12681146184613F08CF84D
:1013A00003461A46164B1A60134B1B68134A136008
:1013B000114B1B681349184613F088F903461C4665
:1013C0000F4B1B681049184613F080F90346194665
:1013D000204613F073F803461A460C4B1A600B4B69
:1013E0001B68184613F038FB034618460C37BD46F9
:1013F00090BD00BF0C000020D8040020DC040020B9
:10140000E00400200000C84100001644E40400206D
:1014100080B487B000AFF860B9601346FB71FB6819
:101420007B61FB79BA6813447A6912781A70FB7988
:101430000133BA6813447A6952781A70FB7902331F
:10144000BA6813447A6992781A70FB790333BA68E0
:1014500013447A69D2781A7000BF1C37BD4680BC2D
:101460007047000080B582B000AF78600B46FB701B
:10147000FB780A2B64D8FB78002B61D0FB78013B0A
:10148000092B5ED801A252F823F000BFB514000862
:10149000C3140008D1140008DF140008ED1400087C
:1014A000FB14000809150008171500082515000889
:1014B000331500083B1D012223491846FFF7A8FFFA
:1014C0003FE03B1D052220491846FFF7A1FF38E009
:1014D0003B1D09221C491846FFF79AFF31E03B1DCE
:1014E0000D2219491846FFF793FF2AE03B1D1122F0
:1014F00015491846FFF78CFF23E03B1D15221249C2
:101500001846FFF785FF1CE03B1D19220E491846BF
:10151000FFF77EFF15E03B1D1D220B491846FFF724
:1015200077FF0EE03B1D212207491846FFF770FFA9
:1015300007E03B1D252204491846FFF769FF00E03C
:1015400000BF0837BD4680BDE804002080B483B0EA
:1015500000AF0346FB71FB790A2B02D8FB79002B05
:1015600001D1002354E02D4B24221A70FB79013B5A
:10157000092B4CD801A252F823F000BFA515000892
:10158000AF150008B9150008C3150008CD150008EF
:10159000D7150008E1150008EB150008F71500083D
:1015A000031600081D4B05225A71062330E01B4B21
:1015B00009225A720A232BE0184B0D225A730E236C
:1015C00026E0164B11225A74122321E0134B1522E8
:1015D0005A7516231CE0114B19225A761A2317E06C
:1015E0000E4B1D225A771E2312E00C4B212283F84A
:1015F000212022230CE0094B252283F825202623D5
:1016000006E0064B292283F829202A2300E0002344
:1016100018460C37BD4680BC704700BFE804002068
:1016200080B582B002AFB94A0021002011F08CFFD2
:10163000B74B1B68184613F035FA02460C2300938B
:1016400003230021282011F011FFB24A0021392084
:1016500011F07AFFAE4B1B68AF49184613F036F80D
:101660000346184613F0F8F90246AC4B83FB02130D
:101670009910D317C91A0B469B000B445B00D11A73
:101680000A460C230093012300213D2011F0EEFEB9
:10169000A34A00215F2011F057FFA24B1B68184698
:1016A00013F000FA02460C230093022300216C2061
:1016B00011F0DCFE9C4A0A21002011F045FF9B4BF3
:1016C0001B68184613F0EEF902460C23009303231F
:1016D0000A21282011F0CAFE8E4A0A21392011F071
:1016E00033FF924B1B688C49184612F0EFFF0346FC
:1016F000184613F0B1F90246884B83FB0213991088
:10170000D317C91A0B469B000B445B00D11A0A463B
:101710000C23009301230A213D2011F0A7FE804AEB
:101720000A215F2011F010FF814B1B68184613F04F
:10173000B9F902460C23009302230A216C2011F010
:1017400095FE7C4A1421002011F0FEFE7A4B1B68A6
:10175000184613F0A7F902460C2300930323142123
:10176000282011F083FE6B4A1421392011F0ECFE81
:10177000714B1B686849184612F0A8FF03461846CB
:1017800013F06AF90246654B83FB02139910D317D5
:10179000C91A0B469B000B445B00D11A0A460C2366
:1017A0000093012314213D2011F060FE5C4A1421B6
:1017B0005F2011F0C9FE614B1B68184613F072F9E7
:1017C00002460C230093022314216C2011F04EFEDC
:1017D0005B4A1E21002011F0B7FE5A4B1B681846C9
:1017E00013F060F902460C23009303231E212820E6
:1017F00011F03CFE474A1E21392011F0A5FE514B45
:101800001B684549184612F061FF0346184613F05D
:1018100023F90246414B83FB02139910D317C91ACF
:101820000B469B000B445B00D11A0A460C23009325
:1018300001231E213D2011F019FE394A1E215F208F
:1018400011F082FE404B1B68184613F02BF902463C
:101850000C23009302231E216C2011F007FE3B4B4A
:101860001B684FF07E51184613F0C4F80346002B56
:1018700020D0012300930C23592200214B2011F08A
:1018800067FD012300930C234E220A214B2011F007
:101890005FFD012300930C234E2214214B2011F0F5
:1018A00057FD012300930C234E221E214B2011F0E3
:1018B0004FFDA1E0254B1B684FF08041184613F007
:1018C00099F80346002B43D0012300930C234E22AA
:1018D00000214B2011F03CFD012300930C235922E1
:1018E0000A214B2011F034FD012300930C234E22DA
:1018F00014214B2011F02CFD012300930C234E22C8
:101900001E214B2011F024FD76E000BF584D010848
:1019100010000020604D01080000204167666666E7
:10192000644D010824000020684D010814000020C7
:1019300028000020704D0108180000202C00002015
:10194000784D01081C0000203000002020000020FD
:10195000684B1B686849184613F04CF80346002B87
:1019600020D0012300930C234E2200214B2011F0A4
:10197000EFFC012300930C234E220A214B2011F08F
:10198000E7FC012300930C23592214214B2011F072
:10199000DFFC012300930C234E221E214B2011F06B
:1019A000D7FC29E0534B1B684FF08141184613F0D8
:1019B00021F80346002B1FD0012300930C234E2255
:1019C00000214B2011F0C4FC012300930C234E2274
:1019D0000A214B2011F0BCFC012300930C234E2262
:1019E00014214B2011F0B4FC012300930C23592245
:1019F0001E214B2011F0ACFC404A2821502011F050
:101A0000A3FD3F4B1B681A460C2300930523282196
:101A10005F2011F02BFD3B4A2821002011F094FD9E
:101A2000394A2821292011F08FFD384A28213F20EA
:101A300011F08AFD364B1B68364A82FB03125211A5
:101A4000DB17D31A1A460C230093022328211C20EB
:101A500011F00CFD2E4B1B682E4A82FB0312511114
:101A6000DA178A1A642101FB02F29A1A0C230093F6
:101A700002232821332011F0F9FC254B1A68254B4D
:101A800083FB02135911D317CB1A642101FB03F313
:101A9000D31A092B07DC0C230093022300222821F0
:101AA0002D2011F0E3FC1C4A3221502011F04CFD96
:101AB0001A4B1B681A460C230093052332215F2022
:101AC00011F0D4FC164A3221002011F03DFD154BD7
:101AD0001B68184612F0E6FF02460C23009304230D
:101AE00032211E2011F0C2FC11F01EFB00BFBD46CA
:101AF00080BD00BF2000002000004040804D010854
:101B00000C000020844D0108604D01088C4D010837
:101B1000DC0500201F85EB51904D0108E0050020F9
:101B2000944D0108E805002080B500AF1E4B1B68EE
:101B300001211846FFF796FC1C4B1B68184612F053
:101B400071FD034602211846FFF78CFC03214FF07C
:101B50000000FFF787FC0320FFF7F8FC03461A4656
:101B6000134B1A70134B00221A7013E000BF124B74
:101B70001B6803F04003002BF9D00E4B1B781A466C
:101B80000E4B9A5C0C4B5A600A4B1B780133DAB24D
:101B9000084B1A70074B1A78054B1B789A42E5D30D
:101BA00000BF00BF80BD00BFE8050020E0050020A9
:101BB000760500207505002000380140E80400206B
:101BC00080B500AF0123002200211C2011F048FD48
:101BD0000123012200212A2011F042FD01230222CB
:101BE0000021382011F03CFD012303220021462072
:101BF00011F036FD012304220021542011F030FDA4
:101C0000012305220021622011F02AFD0123062272
:101C10000021702011F024FD012307221021002053
:101C200011F01EFD0123082210210E2011F018FDD5
:101C30000123092210211C2011F012FD01230A2288
:101C400010212A2011F00CFD01230B221021382035
:101C500011F006FD01230C221021462011F000FD99
:101C600001230D221021542011F0FAFC01230E2231
:101C70001021622011F0F4FC01230F2210217020AA
:101C800011F0EEFC012310222021002011F0E8FCCD
:101C90000123112220210E2011F0E2FC0123122247
:101CA00020211C2011F0DCFC0123132220212A20FA
:101CB00011F0D6FC012314222021382011F0D0FC91
:101CC000012315222021462011F0CAFC01231622EF
:101CD0002021542011F0C4FC01231722202162206E
:101CE00011F0BEFC012318222021702011F0B8FC55
:101CF000012319223021002011F0B2FC01231A2205
:101D000030210E2011F0ACFC01231B2230211C20BD
:101D100011F0A6FC01231C2230212A2011F0A0FC86
:101D200001231C2230212E2011F09AFC01231C22B9
:101D30003021322011F094FC11F0F6F900BF80BD83
:101D400080B500AF01230C220021002011F088FC97
:101D500001231D2200210E2011F082FC01231E22EE
:101D600000211C2011F07CFC01231F2200212A20CD
:101D700011F076FC012320220021382011F070FCA4
:101D8000012321220021462011F06AFC0123222296
:101D90000021542011F064FC01230B220021622059
:101DA00011F05EFC012323220021702011F058FC69
:101DB000012324221021002011F052FC01232522AE
:101DC00010210E2011F04CFC0123262210211C2092
:101DD00011F046FC0123272210212A2011F040FC9B
:101DE000012328221021382011F03AFC0123292256
:101DF0001021462011F034FC01232A221021542006
:101E000011F02EFC01232B221021622011F028FC5E
:101E100001232C221021702011F022FC01232D22FD
:101E20002021002011F01CFC01232E2220210E2055
:101E300011F016FC0123132220211C2011F010FCAC
:101E400001232F2220212A2011F00AFC0123302215
:101E50002021382011F004FC0123312220214620CA
:101E600011F0FEFB012332222021542011F0F8FB57
:101E7000012333222021622011F0F2FB01231822DA
:101E80002021702011F0ECFB0123292230210020B9
:101E900011F0E6FB0123342230210E2011F0E0FB8B
:101EA0000123352230211C2011F0DAFB01231822F6
:101EB00030212A2011F0D4FB0123192230213820AF
:101EC00011F0CEFB012336223021462011F0C8FB51
:101ED000012337223021542011F0C2FB01231C22A0
:101EE0003021622011F0BCFB01231C22302166202E
:101EF00011F0B6FB01231C2230216A2011F0B0FB47
:101F000011F012F900BF80BD80B500AF012342225D
:101F10000021002011F0A4FB0123432200210E2008
:101F200011F09EFB0123442200211C2011F098FB9C
:101F30000123242200212A2011F092FB01232522D3
:101F40000021382011F08CFB01234522002146207E
:101F500011F086FB012302220021542011F080FBA6
:101F6000012303220021622011F07AFB01230422C5
:101F70000021702011F074FB012346221021002063
:101F800011F06EFB0123472210210E2011F068FB97
:101F90000123482210211C2011F062FB0123492259
:101FA00010212A2011F05CFB01234A221021382045
:101FB00011F056FB01234B221021462011F050FB5B
:101FC00001234C221021542011F04AFB01234D2201
:101FD0001021622011F044FB01234E2210217020B9
:101FE00011F03EFB01234F222021002011F038FB8D
:101FF0000123502220210E2011F032FB01230B225D
:1020000020211C2011F02CFB0123512220212A2009
:1020100011F026FB012333222021382011F020FB70
:1020200001233C222021462011F01AFB01233D22EE
:102030002021542011F014FB012352222021622080
:1020400011F00EFB012353222021702011F008FB18
:10205000012354223021002011F002FB01235522DC
:1020600030210E2011F0FCFA01234D2230211C20DA
:1020700011F0F6FA01234E2230212A2011F0F0FA55
:10208000012356223021382011F0EAFA0123572289
:102090003021462011F0E4FA01234C223021542053
:1020A00011F0DEFA012358223021622011F0D8FA13
:1020B000012359223021702011F0D2FA11F034F8A6
:1020C00000BF80BD80B500AF012323220021002086
:1020D00011F0C6FA01235A2200210E2011F0C0FA95
:1020E0000123242200211C2011F0BAFA0123252209
:1020F00000212A2011F0B4FA0123262200213820E1
:1021000011F0AEFA012327220021462011F0A8FA8F
:10211000012328220021542011F0A2FA01232922B0
:102120000021622011F09CFA01235B220021702023
:1021300011F096FA01235C221021002011F090FA90
:1021400001235D221021092011F08AFA01235E2269
:102150001021122011F084FA01234C2210211B209F
:1021600011F07EFA01235F221021292011F078FA64
:10217000012339221021372011F072FA0123602245
:102180001021452011F06CFA0123612210214E200C
:1021900011F066FA012360221021572011F060FA35
:1021A000012361221021602011F05AFA01236322D9
:1021B0001021692011F054FA01236022202100200F
:1021C00011F04EFA012361222021092011F048FA72
:1021D000012362222021122011F042FA0123612200
:1021E00020211B2011F03CFA01236422202124200D
:1021F00011F036FA012357222021322011F030FA53
:1022000001230B222021402011F02AFA0123512220
:1022100020214E2011F024FA0123332220215C20BA
:1022200011F01EFA01234F2220216A2011F018FA22
:10223000012365223021002011F012FA01234922E6
:1022400030210E2011F00CFA01234A2230211C20EB
:1022500011F006FA01234B2230212A2011F000FA56
:1022600001234C223021382011F0FAF901234D22AC
:102270003021462011F0F4F901234E223021542060
:1022800011F0EEF9012313223021622011F0E8F958
:1022900001233C223021702011F0E2F910F044FFBC
:1022A00000BF80BD80B582B002AF01233D22002176
:1022B000002011F0D5F90123312200210E2011F068
:1022C000CFF90123662200211C2011F0C9F9012356
:1022D000332200212A2011F0C3F901231422002106
:1022E000382011F0BDF9012315220021462011F0FC
:1022F000B7F9012316220021542011F0B1F901236E
:1023000017220021622011F0ABF9012318220021CD
:10231000702011F0A5F9012319221021002011F0DD
:102320009FF90123672210210E2011F099F9012352
:10233000682210211C2011F093F90123072210219B
:102340002A2011F08DF9012308221021382011F0E4
:1023500087F901231C221021462011F081F9012365
:102360001C2210214A2011F07BF901231C2210218C
:102370004E2011F075F901230093102341222821EA
:10238000182010F0E5FF0123009310234422282198
:10239000202010F0DDFF0123009310234322282189
:1023A000282010F0D5FF094B1B68184612F07AFB65
:1023B000024610230093042328214E2011F056F8E2
:1023C00010F0B2FE00BFBD4680BD00BFE805002092
:1023D00080B582B002AF012338220021152011F010
:1023E0003FF9012339220021232011F039F901237B
:1023F0003A220021312011F033F901233B22002140
:102400003F2011F02DF901233C2200214D2011F035
:1024100027F901233D2200215B2011F021F901233E
:102420003E220021692011F01BF901233F221021D7
:10243000002011F015F90123402210210E2011F087
:102440000FF90123412210211C2011F009F9012369
:102450001C2210212E2011F003F901231C2210212F
:10246000352011F0FDF801231C2210213C2011F031
:10247000F7F801231C221021432011F0F1F8012369
:102480001C2210214A2011F0EBF801231C221021FC
:10249000512011F0E5F801230C2220210E2011F02B
:1024A000DFF801232B2220211C2011F0D9F8012371
:1024B0002C2220212A2011F0D3F8012324222021CC
:1024C000382011F0CDF8012325222021462011F0DB
:1024D000C7F801232D222021542011F0C1F8012337
:1024E0002E222021622011F0BBF80123009310233B
:1024F00041223021182010F02BFF012300931023DC
:1025000044223021202010F023FF012300931023C8
:1025100043223021282010F01BFF094B1B6818466E
:1025200012F0C0FA024610230093042330214E20FB
:1025300010F09CFF10F0F8FD00BFBD4680BD00BF4D
:10254000E805002080B500AF0123002204212020EF
:1025500011F02CF8012301220421302011F026F87B
:10256000012302220421402011F020F8012303223C
:102570000421502011F01AF80123042218211820F8
:1025800011F014F8012305221821282011F00EF86B
:10259000012306221821382011F008F80123072210
:1025A0001821482011F002F8012308221821582090
:1025B00010F0FCFF012309221821682010F0F6FF1B
:1025C00001230A222C21002010F0F0FF01230B220E
:1025D0002C21102010F0EAFF01230C222C212020B6
:1025E00010F0E4FF01230D222C21302010F0DEFF3B
:1025F00010F09AFD00BF80BD80B500AF01230E2210
:102600001021182010F0D2FF01230F2210212820C2
:1026100010F0CCFF012310221021382010F0C6FF4B
:10262000012311221021482010F0C0FF01231222A3
:102630001021582010F0BAFF012313222021182066
:1026400010F0B4FF012314222021282010F0AEFF47
:10265000012315222021382010F0A8FF0123002299
:102660002021482010F0A2FF012301222021582020
:1026700010F09CFF10F058FD00BF80BD80B584B005
:1026800000AF3B1D00221A605A609A602F4B304AFF
:102690001A602E4B00229A602C4B00221A732B4B8F
:1026A00000221A75294B4FF46022DA61274B002271
:1026B0005A60264B01221A61244801F0D9F90346D9
:1026C000002B01D000F062FC03237B600123BB6080
:1026D0000023FB603B1D19461C4802F0A3F803468B
:1026E000002B01D000F052FC1A4B1B4A1A60194B08
:1026F00000229A60174B00221A73164B00221A759B
:10270000144B4FF46022DA61124B00225A60114BD5
:1027100001221A610F4801F0ABF90346002B01D0EA
:1027200000F034FC06237B600123BB600023FB60C8
:102730003B1D1946074802F075F80346002B01D0EF
:1027400000F024FC00BF1037BD4680BDA805002066
:1027500000240140780500200028014080B58AB09F
:1027600000AF786007F1180300221A605A609A607F
:10277000DA607B681B682B4A934225D12A4B9B6900
:10278000294A43F400739361274B9B6903F4007358
:102790007B617B69244B9B69234A43F0040393616B
:1027A000214B9B6903F004033B613B690823BB6138
:1027B0000323FB6107F1180319461C4805F06CFA66
:1027C0001B4802F095FA29E07B681B68194A93427E
:1027D00024D1154B9B69144A43F480639361124BD7
:1027E0009B6903F48063FB60FB680F4B9B690E4A97
:1027F00043F0040393610C4B9B6903F00403BB603B
:10280000BB684023BB610323FB6107F11803194632
:10281000064805F041FA084802F06AFA00BF283776
:10282000BD4680BD00240140001002400008014068
:10283000A8050020002801407805002080B582B05E
:1028400000AF78607B681B68104A93420AD1104B36
:102850009B690F4A23F40073936108210D4805F02A
:102860009FFB0EE07B681B680B4A934209D1084B23
:102870009B69074A23F4806393614021054805F072
:102880008FFB00BF0837BD4680BD00BF002401405C
:1028900000100240000801400028014080B586B0C9
:1028A00000AF78607B68FB6001233B617B68032B92
:1028B00002D100237B6104E07B68062B01D1072352
:1028C0007B6107F10C031946094801F0ABFF08488A
:1028D00001F07AFA0A21064801F050FB044801F0A1
:1028E000AEFE03469BB218461837BD4680BD00BFFA
:1028F000A805002080B586B000AF78607B68FB60DB
:1029000001233B617B68032B02D100237B6104E040
:102910007B68062B01D107237B6107F10C03194665
:10292000094801F07FFF084801F04EFA0A210648E5
:1029300001F024FB044801F082FE03469BB21846D6
:102940001837BD4680BD00BF78050020000000009C
:1029500080B582B000AF0620FFF7CCFF03461846D3
:1029600011F0B2FA16A3D3E9002311F017FB0246C7
:102970000B46104619464FF00002134B11F00EFBA8
:1029800002460B46104619464FF000020F4B11F05D
:1029900005FB02460B46104619464FF000020C4B51
:1029A00011F026FC02460B461046194611F008FDB0
:1029B00003467B607B6818460837BD4680BD00BF74
:1029C0006666666666660A4000002640000059405A
:1029D0000000B04080B584B000AF78600B46FB705B
:1029E0000023FB600023FB720AE07868FFF756FFC4
:1029F00003461A46FB681344FB60FB7A0133FB7203
:102A0000FA7AFB789A42F0D3FB78FA68B2FBF3F3D8
:102A10009BB218461037BD4680BD000080B588B017
:102A200000AF07F1100300221A605A609A60DA6062
:102A30004D4B9B694C4A43F0200393614A4B9B6981
:102A400003F02003FB60FB68474B9B69464A43F059
:102A500004039361444B9B6903F00403BB60BB68B0
:102A6000414B9B69404A43F0080393613E4B9B698D
:102A700003F008037B607B68012210213B4805F0CE
:102A800062FB002243F23801394805F05CFB00226A
:102A90004FF40041354805F056FB04233B61002309
:102AA0007B610123BB6107F1100319462F4805F034
:102AB000F3F810233B6101237B610123BB610323F6
:102AC000FB6107F110031946284805F0E5F84FF4BB
:102AD000C5533B61274B7B610123BB6107F11003A9
:102AE0001946224805F0D8F843F218033B61012348
:102AF0007B610023BB610323FB6107F110031946CF
:102B00001B4805F0C9F84FF400433B6101237B618A
:102B10000023BB610323FB6107F11003194613482F
:102B200005F0BAF820233B6101237B610023BB61E0
:102B30000223FB6107F1100319460D4805F0ACF8BC
:102B400002220221172003F066F9172003F07FF913
:102B500002220221282003F05EF9282003F077F9F1
:102B600000BF2037BD4680BD001002400008014074
:102B7000000C01400000211090B583B000AF034667
:102B8000FB80052000F0A0FE964B1B68002B12D1A5
:102B9000954B1B78002B0CBF01230023DBB21A4698
:102BA000914B1A70904B1B78002B40F0DE808F4BBE
:102BB00000221A70D9E08E4B1B68002B18D18D4B68
:102BC0001C684FF07E51204611F078FC03461A46EF
:102BD000884B1A604FF08141204611F00BFF0346ED
:102BE000002B00F0C280834B4FF07E521A60BCE095
:102BF000814B1B68002B5AD17E4B1B684FF07E51D6
:102C0000184611F0F7FE0346002B0CD07B4B1B68D7
:102C10007B4A12681146184611F04EFC03461A46CC
:102C2000764B1A60A1E0734B1B684FF08041184649
:102C300011F0E0FE0346002B0CD0724B1B68724A69
:102C400012681146184611F037FC03461A466D4BC0
:102C50001A608AE0674B1B686C49184611F0CAFE7F
:102C60000346002B0CD06A4B1B686A4A1268114657
:102C7000184611F021FC03461A46654B1A6074E0B1
:102C80005C4B1B684FF08141184611F0B3FE0346C0
:102C9000002B6AD0604B1B68604A126811461846C8
:102CA00011F00AFC03461A465B4B1A605DE05C4B70
:102CB0001B68002B59D14F4B1B684FF07E511846B3
:102CC00011F098FE0346002B0CD04C4B1B684C4A6D
:102CD00012681146184611F0F1FB03461A46474B9D
:102CE0001A6042E0434B1B684FF08041184611F0D8
:102CF00081FE0346002B0CD0424B1B68424A1268EF
:102D00001146184611F0DAFB03461A463D4B1A608D
:102D10002BE0384B1B683D49184611F06BFE03460B
:102D2000002B0CD03A4B1B683A4A126811461846E1
:102D300011F0C4FB03461A46354B1A6015E02D4BC3
:102D40001B684FF08141184611F054FE0346002BDA
:102D50000BD0314B1B68314A12681146184611F0EE
:102D6000ADFB03461A462C4B1A60244B1B684FF0F0
:102D70000001184611F052FE0346002B03D01F4BF2
:102D80004FF000021A601F4B1B684FF000011846FD
:102D900011F044FE0346002B03D01A4B4FF0000203
:102DA0001A601B4B1B684FF00001184611F036FEED
:102DB0000346002B03D0164B4FF000021A60164B4F
:102DC0001B684FF00001184611F028FE0346002B47
:102DD00000D103E0104B4FF000021A6000BF0C3727
:102DE000BD4690BD140121420800002004000020CF
:102DF0001C0121422000002030012142100000204F
:102E00002400002014000020280000200000404082
:102E1000180000202C0000201C00002030000020A2
:102E20002C01214280B500AF00F08CFC00F02CF8A2
:102E3000022000F085F8012000F082F84FF47A704B
:102E400000F042FD4FF47A7000F03EFDFFF7E6FD22
:102E500000F0F2F900F06AFA00F0E0FBFFF70EFC78
:102E600000F094F910F05AFCFEF75EFEFDF744F90D
:102E7000044B01221A7000BF024B1B78DBB2002BFF
:102E8000FAD1F1E7D805002080B594B000AF07F182
:102E9000280328220021184611F078FE07F11403B8
:102EA00000221A605A609A60DA601A613B1D0022A3
:102EB0001A605A609A60DA600123BB624FF4803373
:102EC000FB6200233B630123BB6302237B644FF45B
:102ED0008033BB644FF4E013FB6407F1280318460A
:102EE00005F010FC0346002B01D000F04FF80F2333
:102EF0007B610223BB610023FB614FF480633B6273
:102F000000237B6207F114030221184605F07AFEC4
:102F10000346002B01D000F039F802237B604FF408
:102F20000043FB603B1D184606F022F90346002BC8
:102F300001D000F02BF800BF5037BD4680BD000027
:102F400080B485B000AF0346FB71FB79FB60FB6882
:102F50005B06FB600B4B9B690A4A43F001039361DC
:102F6000094B5B68084A23F0E0635360064B5A68DC
:102F70000549FB6813434B6000BF1437BD4680BC56
:102F8000704700BF001002400000014080B400AF55
:102F900072B600BFFEE780B483B000AF786072B64F
:102FA00000BFFEE780B584B000AF164B9B69154AA1
:102FB00043F001039361134B9B6903F00103BB6072
:102FC000BB68104BDB690F4A43F08053D3610D4B54
:102FD000DB6903F080537B607B68052002F010FF03
:102FE000094B5B68FB60FB6823F0E063FB60FB68F8
:102FF00043F00073FB60044AFB68536000BF103766
:10300000BD4680BD001002400000014080B400AF0A
:10301000FEE780B400AFFEE780B400AFFEE780B407
:1030200000AFFEE780B400AFFEE780B400AF00BFA2
:10303000BD4680BC704780B400AF00BFBD4680BCB9
:10304000704780B400AF00BFBD4680BC704780B5FC
:1030500000AF00F0E1FB00BF80BD80B500AF2020D5
:1030600005F0CAF8802005F0C7F800BF80BD000059
:1030700080B500AF024809F088FD00BF80BD00BFE9
:103080007C06002080B500AF4FF4006005F0B4F876
:103090004FF4805005F0B0F800BF80BD80B400AFA1
:1030A00000BFBD4680BC704780B485B000AF002330
:1030B000FB600023BB6000237B602F4B5B6803F049
:1030C0000C03FB60FB68082B11D0FB68082B3AD877
:1030D000FB68002B03D0FB68042B04D033E0274BA4
:1030E000274A1A6033E0254B254A1A602FE0224B0D
:1030F0005B6803F47013BB601F4B5B6803F48033A1
:103100007B60BB689B0C0233BB607B68002B06D1E5
:10311000BB681C4A02FB03F3184A136017E0164B06
:103120005B6803F40033002B06D0BB68154A02FB32
:1031300003F3124A13600AE0BB68114A02FB03F36F
:103140000E4A136003E00D4B0D4A1A6000BF0A4B94
:103150005B681B0903F00F030B4AD35CFB60074B52
:103160001A68FB6822FA03F3044A136000BF14379D
:10317000BD4680BC704700BF0010024034000020F4
:1031800000127A0000093D009C4D010880B586B010
:1031900000AF07F1080300221A605A609A60DA60F3
:1031A0003B4600221A605A60214B224A1A60204B8B
:1031B00041F61F425A601E4B00229A601C4B31227E
:1031C000DA601B4B00221A61194B00225A61184B1E
:1031D00000229A61164806F075F90346002B01D0CB
:1031E000FFF7D4FE4FF48053BB6007F10803194684
:1031F0000F480AF0DDFC0346002B01D0FFF7C6FEA6
:1032000000233B6000237B603B46194608480DF0D5
:10321000EDFB0346002B01D0FFF7B8FE044806F093
:1032200051F9034806F074FA00BF1837BD4680BD57
:103230007C060020002C014080B58EB000AF07F165
:10324000280300221A605A609A60DA6007F12003AE
:1032500000221A605A603B1D00221A605A609A6070
:10326000DA601A615A619A612E4B2F4A1A602D4B0F
:1032700000225A602B4B00229A602A4B41F61F42D3
:10328000DA60284B00221A61264B00229A612548F9
:1032900006F018F90346002B01D0FFF777FE4FF434
:1032A0008053BB6207F1280319461E480AF080FCD0
:1032B0000346002B01D0FFF769FE1A4807F006F914
:1032C0000346002B01D0FFF761FE00233B62002381
:1032D0007B6207F12003194612480DF087FB034675
:1032E000002B01D0FFF752FE60237B600023BB6000
:1032F0000023FB6000237B613B1D0C22194609481B
:1033000009F038FE0346002B01D0FFF73FFE0C21E9
:10331000044807F091F9034800F0DCF800BF3837A3
:10332000BD4680BD340600200004004080B58CB04E
:1033300000AF07F10C0324220021184611F026FCEF
:103340003B1D00221A605A60244B254A1A60234B09
:1033500000225A60214B00229A60204B4FF6FF72E8
:10336000DA601E4B00221A611C4B00229A61032373
:10337000FB6000233B6101237B610023BB610A23C7
:10338000FB6100233B6201237B620023BB620A23B3
:10339000FB6207F10C031946104808F039FE03469A
:1033A000002B01D0FFF7F2FD00237B600023BB6000
:1033B0003B1D194609480DF019FB0346002B01D0AF
:1033C000FFF7E4FD064B42F210725A623C210348BB
:1033D00008F016FF00BF3037BD4680BDEC05002069
:1033E0000008004080B584B000AF78607B681B683F
:1033F000164A934214D1164B9B69154A43F4006355
:103400009361134B9B6903F40063FB60FB68032229
:103410000121192002F0FFFC192002F018FD10E034
:103420007B681B680B4A93420BD1094BDB69084A46
:1034300043F00203D361064BDB6903F00203BB6078
:10344000BB6800BF1037BD4680BD00BF002C0140E7
:10345000001002400004004080B588B000AF7860E2
:1034600007F1100300221A605A609A60DA607B68E4
:103470001B68154A934223D1144BDB69134A43F06E
:103480000403D361114BDB6903F00403FB60FB68A9
:103490000E4B9B690D4A43F0080393610B4B9B69EC
:1034A00003F00803BB60BB68C0233B6100237B6162
:1034B0000023BB6107F110031946054804F0ECFB3B
:1034C00000BF2037BD4680BD00080040001002400C
:1034D000000C014080B588B000AF786007F11003A0
:1034E00000221A605A609A60DA607B681B680F4A93
:1034F000934217D10E4B9B690D4A43F00803936129
:103500000B4B9B6903F00803FB60FB6802233B61E4
:1035100002237B610323FB6107F110031946054871
:1035200004F0BAFB00BF2037BD4680BD0004004058
:1035300000100240000C014080B582B000AF7860FE
:103540007B681B680D4A934209D10D4B9B690C4A5D
:1035500023F400639361192002F087FC0AE07B6882
:103560001B68084A934205D1054BDB69044A23F0E6
:103570000203D36100BF0837BD4680BD002C014067
:10358000001002400004004080B582B000AF7860B7
:103590007B681B68084A934209D1084BDB69074ADC
:1035A00023F00403D361C021054804F0F9FC00BFF7
:1035B0000837BD4680BD00BF000800400010024033
:1035C000000C014080B485B000AF0346FB71FB796D
:1035D000042B11D0042B14DC022B02D0032B06D0B9
:1035E0000FE04FF080435B6A1BB2FB600BE0094BBE
:1035F0005B6A1BB2FB6006E0074B5B6A1BB2FB60B9
:1036000001E00023FB60FB6818461437BD4680BC10
:10361000704700BF000400400008004080B500AFC4
:10362000114B124A1A60104B4FF4FA325A600E4B8B
:1036300000229A600C4B0022DA600B4B00221A61C8
:10364000094B0C225A61084B00229A61064B00225A
:10365000DA6105480DF0A7FB0346002B01D0FFF708
:1036600095FC00BF80BD00BFC406002000380140AB
:1036700080B588B000AF786007F1100300221A60AF
:103680005A609A60DA607B681B681C4A934231D1A9
:103690001B4B9B691A4A43F480439361184B9B6907
:1036A00003F48043FB60FB68154B9B69144A43F0AD
:1036B00004039361124B9B6903F00403BB60BB6876
:1036C0004FF400733B6102237B610323FB6107F12D
:1036D000100319460B4804F0DFFA4FF480633B6196
:1036E00000237B610023BB6107F1100319460548E5
:1036F00004F0D2FA00BF2037BD4680BD003801403B
:10370000001002400008014080B582B000AF786030
:103710007B681B68084A93420AD1084B9B69074A99
:1037200023F4804393614FF4C061054804F038FCF2
:1037300000BF0837BD4680BD003801400010024080
:103740000008014080B500AF084B1B68074A43F0F2
:1037500010031360032002F053FB002000F02CF84C
:10376000FFF720FC0023184680BD00BF0020024068
:1037700080B500AF094B4FF0FF32DA60074B0022F3
:103780001A61064B4FF0FF32DA60044B0022DA6018
:1037900000F00CF80023184680BD00BF0010024066
:1037A00080B400AF00BFBD4680BC704780B400AF9E
:1037B00000BFBD4680BC704780B582B000AF786066
:1037C000124B1A68124B1B7819464FF47A73B3FBED
:1037D000F1F3B2FBF3F3184602F059FB0346002B5A
:1037E00001D001230EE07B680F2B0AD800227968F4
:1037F0004FF0FF3002F00FFB064A7B681360002396
:1038000000E0012318460837BD4680BD3400002083
:103810003C0000203800002080B400AF054B1B782E
:103820001A46054B1B681344034A136000BFBD468C
:1038300080BC70473C0000200807002080B400AF27
:10384000024B1B681846BD4680BC70470807002025
:1038500080B400AF024B1B681846BD4680BC704761
:103860003800002080B584B000AF0346FB71002310
:10387000FB730E4B1B78FA799A4212D00B4B1B78D4
:10388000BB730A4AFB791370094B1B681846FFF794
:1038900093FF0346FB73FB7B002B02D0034ABB7BE9
:1038A0001370FB7B18461037BD4680BD3C000020DE
:1038B0003800002080B400AF024B1B781846BD468C
:1038C00080BC70473C00002080B584B000AF7860B9
:1038D000FFF7B4FFB8607B68FB60FB68B3F1FF3FA4
:1038E00005D00A4B1B781A46FB681344FB6000BFE7
:1038F000FFF7A4FF0246BB68D31AFA689A42F7D8CA
:1039000000BF00BF1037BD4680BD00BF3C00002097
:1039100080B400AF044B1B68034A23F0020313601A
:1039200000BFBD4680BC704710E000E080B400AF2F
:10393000044B1B68034A43F00203136000BFBD46FB
:1039400080BC704710E000E080B400AF024B184626
:10395000BD4680BC704700BF0008010180B400AFC5
:10396000034B1B681B0C1846BD4680BC704700BF4C
:10397000002004E080B400AF034B1B68C3F30B03CB
:103980001846BD4680BC7047002004E080B400AFFC
:10399000024B1B681846BD4680BC7047E8F7FF1F06
:1039A00080B400AF024B1B681846BD4680BC704710
:1039B000ECF7FF1F80B400AF024B1B681846BD46F2
:1039C00080BC7047F0F7FF1F80B400AF044B5B680A
:1039D000034A43F00103536000BFBD4680BC7047FB
:1039E000002004E080B400AF044B5B68034A23F07E
:1039F0000103536000BFBD4680BC7047002004E057
:103A000080B400AF044B5B68034A43F00203536089
:103A100000BFBD4680BC7047002004E080B400AF0A
:103A2000044B5B68034A23F00203536000BFBD46AA
:103A300080BC7047002004E080B400AF044B5B689A
:103A4000034A43F00403536000BFBD4680BC704787
:103A5000002004E080B400AF044B5B68034A23F00D
:103A60000403536000BFBD4680BC7047002004E0E3
:103A700080B586B000AF78600023FB7500233B6102
:103A80000023BB600023FB607B68002B01D1012376
:103A9000BEE07B689B68002B7B689B6A002B09D18A
:103AA0007B680022DA627B68002283F82420786831
:103AB000FEF754FE786801F073F80346FB757B68E7
:103AC0009B6A03F01003002B40F09980FB7D002BD4
:103AD00040F095807B689B6A23F4885323F00203AF
:103AE00043F002027B689A627B685A687B68DB69F4
:103AF0001A437B681B7B5B001343BA681343BB60AC
:103B00007B689B68B3F5807F03D07B689B68012B43
:103B100002D14FF4807300E000233A6913433B6104
:103B20007B681B7D012B19D17B681B7B002B09D186
:103B30007B689B69013B5A033B69134343F4006371
:103B40003B610BE07B689B6A43F020027B689A62D2
:103B50007B68DB6A43F001027B68DA627B681B6882
:103B60005B6823F469417B681B683A690A435A60C1
:103B70007B681B689A68284B13407A681268B9689A
:103B80000B4393607B689B68B3F5807F03D07B68B1
:103B90009B68012B04D17B681B69013B1B05FB6003
:103BA0007B681B68DB6A23F470017B681B68FA681A
:103BB0000A43DA627B681B689A68184B1340BA683C
:103BC0009A420BD17B680022DA627B689B6A23F001
:103BD000030343F001027B689A6218E07B689B6AEA
:103BE00023F0120343F010027B689A627B68DB6A61
:103BF00043F001027B68DA620123FB7507E07B6812
:103C00009B6A43F010027B689A620123FB75FB7D7F
:103C100018461837BD4680BDFDF7E1FFFE0E1FFFB9
:103C200080B584B000AF78600023FB737B68002B05
:103C300001D10123ADE07B689B6A43F002027B68FF
:103C40009A62786800F0ACFF0346FB73FB7B002BA5
:103C500040F09A807B681B686FF01F021A607B68D7
:103C60001B6859687B681A684C4B0B4053607B6833
:103C70001B6899687B681A68494B0B4093607B68A6
:103C80001B68DA687B681B6802F07F42DA607B6839
:103C90001B681A697B681B6802F040421A617B68E6
:103CA0001B685B697A68126823F47F6323F00F0353
:103CB00053617B681B689B697A68126823F47F6391
:103CC00023F00F0393617B681B68DB697A681268D5
:103CD00023F47F6323F00F03D3617B681B681B6AA7
:103CE0007A68126823F47F6323F00F0313627B6802
:103CF0001B685B6A7A68126823F47F6323F00F0302
:103D000053627B681B689B6A7A68126823F47F633E
:103D100023F00F0393627B681B68DA6A7B681B6879
:103D200002F07F42DA627B681B68DA6A7B681B6894
:103D300002F07F42DA627B681B681A6B7B681B6843
:103D400002F040421A637B681B685A6B7B681B68F1
:103D500002F040425A637B681B689B6B7A6812686A
:103D60009B0D9B0593637B681B689B6B7A6812684D
:103D70009B0D9B0593637868FEF760FD7B680022CE
:103D8000DA627B6800229A627B68002283F8242032
:103D9000FB7B18461037BD4680BD00BF00003FFFCB
:103DA000F00601FF80B483B000AF786000BF0C372D
:103DB000BD4680BC704780B483B000AF786000BF60
:103DC0000C37BD4680BC704780B584B000AF7860CA
:103DD0000023FB737B6893F82430012B01D102236D
:103DE00098E07B68012283F82420786800F07EFE4A
:103DF0000346FB73FB7B002B40F087807B689B6A4C
:103E000023F4407323F0010343F480727B689A62C9
:103E10007B681B68414A934205D1414B5B6803F4C0
:103E20007023002B15D17B689B6A23F480127B687A
:103E30009A627B681B685B6803F48063002B26D062
:103E40007B689B6A23F4405343F480527B689A62F8
:103E50001DE07B689B6A43F480127B689A627B68F2
:103E60001B682F4A934204D07B681B682B4A9342FD
:103E70000DD12B4B5B6803F48063002B07D07B686C
:103E80009B6A23F4405343F480527B689A627B68B8
:103E90009B6A03F48053002B06D07B68DB6A23F017
:103EA00006027B68DA6202E07B680022DA627B68E5
:103EB000002283F824207B681B686FF002021A60DE
:103EC0007B681B689B6803F46023B3F5602F13D1F4
:103ED0007B681B68114A934205D1114B5B6803F460
:103EE0007023002B08D17B681B689A687B681B686D
:103EF00042F4A0029A600CE07B681B689A687B68B9
:103F00001B6842F480129A6003E07B68002283F809
:103F10002420FB7B18461037BD4680BD0028014099
:103F20000024014080B584B000AF78600023FB73AB
:103F30007B6893F82430012B01D102231AE07B68BF
:103F4000012283F82420786800F02AFE0346FB73E0
:103F5000FB7B002B09D17B689B6A23F4885323F0F9
:103F6000010343F001027B689A627B68002283F8B8
:103F70002420FB7B18461037BD4680BD90B587B026
:103F800000AF7860396000237B610023FB60002371
:103F90003B61FFF753FC78617B681B689B6803F407
:103FA0008073002B0BD07B689B6A43F020027B68F8
:103FB0009A627B68002283F824200123D3E07B6887
:103FC0001B685B6803F48073002B31D17B681B682E
:103FD000DB6A03F47003002B2AD121E03B68B3F1C4
:103FE000FF3F1DD03B68002B07D0FFF727FC0246A0
:103FF0007B69D31A3A689A4212D27B681B681B68A5
:1040000003F00203002B0BD17B689B6A43F0040290
:104010007B689A627B68002283F824200323A2E055
:104020007B681B681B6803F00203002BD6D070E08E
:104030004F4B1C68022005F081F90346B4FBF3F2F4
:104040007B681B6819694B4B0B40002B18D17B68B0
:104050001B68D968484B0B40002B11D17B681B684B
:104060001969464B0B40002B08D17B681B68D96847
:10407000434B0B40002B01D1142320E029231EE0E9
:104080007B681B6819693D4B0B40002B06D17B6890
:104090001B68D9683A4B0B40002B0DD07B681B681E
:1040A0001969384B0B40002B08D17B681B68D96815
:1040B000344B0B40002B01D1542300E0FC2302FBC6
:1040C00003F33B6121E03B68B3F1FF3F1AD03B684B
:1040D000002B07D0FFF7B2FB02467B69D31A3A6880
:1040E0009A420FD2FB683A699A420BD97B689B6A65
:1040F00043F004027B689A627B68002283F82420E4
:10410000032330E0FB680133FB60FB683A699A42A5
:10411000D9D87B681B686FF012021A607B689B6AB3
:1041200043F400727B689A627B681B689B6803F4A7
:104130006023B3F5602F15D17B681B7B002B11D159
:104140007B689B6A23F480727B689A627B689B6AB7
:1041500003F48053002B05D17B689B6A43F0010276
:104160007B689A62002318461C37BD4690BD00BF8D
:1041700034000020244992242449920092244912B8
:10418000922449004992240080B586B000AFF860BF
:10419000B9607A6000237B61FFF750FB786122E011
:1041A0007B68B3F1FF3F1ED07B68002B07D0FFF781
:1041B00045FB02467B69D31A7A689A4213D2FB68A0
:1041C0001B681A68BB681340BA689A420BD0FB6838
:1041D0009B6A43F00402FB689A62FB68002283F842
:1041E0002420032313E0FB681B681A68BB68134094
:1041F000BA689A42D4D1FB689B6A43F48032FB6868
:104200009A62FB681B686FF001021A60002318466F
:104210001837BD4680BD000080B584B000AF78601F
:104220000023FB737B6893F82430012B01D1022318
:10423000A0E07B68012283F82420786800F056FC17
:104240000346FB73FB7B002B40F08F807B689B6AEF
:1042500023F4706323F0010343F480727B689A6255
:104260007B681B68454A934205D1454B5B6803F464
:104270007023002B15D17B689B6A23F480127B6826
:104280009A627B681B685B6803F48063002B26D00E
:104290007B689B6A23F4405343F480527B689A62A4
:1042A0001DE07B689B6A43F480127B689A627B689E
:1042B0001B68334A934204D07B681B682F4A9342A1
:1042C0000DD12F4B5B6803F48063002B07D07B6814
:1042D0009B6A23F4405343F480527B689A627B6864
:1042E0009B6A03F48053002B06D07B68DB6A23F0C3
:1042F00006027B68DA6202E07B680022DA627B6891
:10430000002283F824207B681B686FF002021A6089
:104310007B681B685A687B681B6842F020025A6001
:104320007B681B689B6803F46023B3F5602F13D18F
:104330007B681B68114A934205D1114B5B6803F4FB
:104340007023002B08D17B681B689A687B681B6808
:1043500042F4A0029A600CE07B681B689A687B6854
:104360001B6842F480129A6003E07B68002283F8A5
:104370002420FB7B18461037BD4680BD0028014035
:104380000024014080B584B000AF78600023FB7347
:104390007B6893F82430012B01D1022322E07B6853
:1043A000012283F82420786800F0FAFB0346FB73AF
:1043B000FB7B002B11D17B681B685A687B681B68EC
:1043C00022F020025A607B689B6A23F4885323F012
:1043D000010343F001027B689A627B68002283F844
:1043E0002420FB7B18461037BD4680BD80B586B0C3
:1043F00000AFF860B9607A600023FB75FB681B684A
:10440000644A934204D0FB681B68634A934206D116
:10441000604B5B6803F47023002B40F0B380FB68B3
:1044200093F82430012B01D10223AEE0FB68012276
:1044300083F82420F86800F059FB0346FB75FB7DE8
:10444000002B40F09A80FB689B6A23F4706323F092
:10445000010343F48072FB689A62FB681B684E4A52
:10446000934205D14B4B5B6803F47023002B15D1AD
:10447000FB689B6A23F48012FB689A62FB681B68E6
:104480005B6803F48063002B26D0FB689B6A23F4EF
:10449000405343F48052FB689A621DE0FB689B6ABC
:1044A00043F48012FB689A62FB681B68394A9342A6
:1044B00004D0FB681B68384A93420DD1354B5B68CA
:1044C00003F48063002B07D0FB689B6A23F44053FE
:1044D00043F48052FB689A62FB689B6A03F4805342
:1044E000002B06D0FB68DB6A23F00602FB68DA6269
:1044F00002E0FB680022DA62FB68002283F82420D5
:10450000FB681B6A254A9A62FB681B6A244ADA62C6
:10451000FB681B6A234A1A63FB681B686FF0020280
:104520001A60FB681B689A68FB681B6842F480721B
:104530009A60FB68186AFB681B684C331946BA68B6
:104540007B6801F027FEFB681B689B6803F460230F
:10455000B3F5602F08D1FB681B689A68FB681B687D
:1045600042F4A0029A600FE0FB681B689A68FB683F
:104570001B6842F480129A6006E0FB68002283F810
:10458000242001E00123FB75FB7D18461837BD464A
:1045900080BD00BF0024014000280140234C0008DA
:1045A0009F4C0008BB4C000880B584B000AF786019
:1045B0000023FB737B6893F82430012B01D1022385
:1045C00039E07B68012283F82420786800F0E8FA5B
:1045D0000346FB73FB7B002B28D17B681B689A6822
:1045E0007B681B6822F480729A607B681B6A93F870
:1045F0002130022B1AD17B681B6A184601F029FE74
:104600000346FB73FB7B002B0AD17B689B6A23F478
:10461000885323F0010343F001027B689A6205E0AE
:104620007B689B6A43F040027B689A627B68002249
:1046300083F82420FB7B18461037BD4680BD80B42C
:1046400083B000AF78607B681B68DB6C18460C3762
:10465000BD4680BC704780B582B000AF78607B6893
:104660001B685B6803F02003202B40D17B681B682C
:104670001B6803F00203022B39D17B689B6A03F0AD
:104680001003002B05D17B689B6A43F400727B68A2
:104690009A627B681B689B6803F46023B3F5602F04
:1046A0001DD17B681B7B002B19D17B681B685A6866
:1046B0007B681B6822F020025A607B689B6A23F4A7
:1046C00080727B689A627B689B6A03F48053002B3C
:1046D00005D17B689B6A43F001027B689A62786827
:1046E00000F07CF87B681B686FF012021A607B6830
:1046F0001B685B6803F08003802B4FD17B681B68CD
:104700001B6803F00403042B48D17B689B6A03F009
:104710001003002B05D17B689B6A43F400527B6831
:104720009A627B681B689B6803F4E043B3F5E04F33
:1047300012D07B681B685B6803F48063002B25D173
:104740007B681B689B6803F46023B3F5602F1DD161
:104750007B681B7B002B19D17B681B685A687B68C0
:104760001B6822F080025A607B689B6A23F48052A7
:104770007B689A627B689B6A03F48073002B05D187
:104780007B689B6A43F001027B689A62786800F05C
:1047900063FF7B681B686FF00C021A607B681B6804
:1047A0005B6803F04003402B14D17B681B681B68D7
:1047B00003F00103012B0DD17B689B6A43F4803227
:1047C0007B689A62786800F01BF87B681B686FF062
:1047D00001021A6000BF0837BD4680BD80B483B0B7
:1047E00000AF786000BF0C37BD4680BC704780B416
:1047F00083B000AF786000BF0C37BD4680BC704707
:1048000080B483B000AF786000BF0C37BD4680BC79
:10481000704780B483B000AF786000BF0C37BD46EE
:1048200080BC704780B485B000AF786039600023E9
:10483000FB730023BB607B6893F82430012B01D10C
:104840000223DCE07B68012283F824203B685B685C
:10485000062B1CD87B681B68596B3B685A6813464B
:104860009B001344053B1F2202FA03F3DB4319406C
:104870003B6818683B685A6813469B001344053B25
:1048800000FA03F27B681B680A435A633CE03B680A
:104890005B680C2B1CD87B681B68196B3B685A68DB
:1048A00013469B001344233B1F2202FA03F3DB430E
:1048B00019403B6818683B685A6813469B001344CC
:1048C000233B00FA03F27B681B680A431A631BE070
:1048D0007B681B68D96A3B685A6813469B0013447F
:1048E000413B1F2202FA03F3DB4319403B6818687F
:1048F0003B685A6813469B001344413B00FA03F29D
:104900007B681B680A43DA623B681B68092B1CD969
:104910007B681B68D9683B681A6813465B001344C0
:104920001E3B072202FA03F3DB4319403B689868F9
:104930003B681A6813465B0013441E3B00FA03F2FF
:104940007B681B680A43DA6019E07B681B68196999
:104950003B681A6813465B001344072202FA03F30C
:10496000DB4319403B6898683B681A6813465B0054
:10497000134400FA03F27B681B680A431A613B6820
:104980001B68102B03D03B681B68112B32D17B684E
:104990001B681D4A934225D17B681B689B6803F402
:1049A0000003002B26D17B681B689A687B681B6814
:1049B00042F400029A603B681B68102B1AD1134B1B
:1049C0001B68134AA2FB03239A0C13469B00134453
:1049D0005B00BB6002E0BB68013BBB60BB68002BB7
:1049E000F9D107E07B689B6A43F020027B689A62FA
:1049F0000123FB737B68002283F82420FB7B18468D
:104A00001437BD4680BC70470024014034000020AC
:104A100083DE1B4380B483B000AF786039603B68AD
:104A20001B68244A934203D03B681B68224A934286
:104A30007B6893F82430012B01D1022335E07B6899
:104A4000012283F824203B681B7A012B08D17B6864
:104A50001B685A687B681B6842F040025A6007E096
:104A60007B681B685A687B681B6822F040025A60AA
:104A70007B681B685A68114B13403A6811683A68A2
:104A8000526811437A6812680B4353607B681B6855
:104A90003A68D2685A627B681B683A6812699A62FF
:104AA0007B68002283F82420002318460C37BD467B
:104AB00080BC70470002800000024000E0FD3FFF24
:104AC00080B483B000AF78607B689B6A18460C376F
:104AD000BD4680BC704780B483B000AF78607B680F
:104AE000DB6A18460C37BD4680BC704780B584B081
:104AF00000AF78600023FB600023BB607B681B680D
:104B00009B6803F00103012B40D07B681B689A6807
:104B10007B681B6842F001029A601F4B1B681F4AAA
:104B2000A2FB03239B0CBB6002E0BB68013BBB60A4
:104B3000BB68002BF9D1FEF781FEF8601FE0FEF79D
:104B40007DFE0246FB68D31A022B18D97B681B68CE
:104B50009B6803F00103012B11D07B689B6A43F033
:104B600010027B689A627B68DB6A43F001027B6813
:104B7000DA627B68002283F82420012307E07B6847
:104B80001B689B6803F00103012BD8D10023184652
:104B90001037BD4680BD00BF3400002083DE1B43BC
:104BA00080B584B000AF78600023FB607B681B6831
:104BB0009B6803F00103012B2ED17B681B689A6868
:104BC0007B681B6822F001029A60FEF737FEF860EE
:104BD0001BE0FEF733FE0246FB68D31A022B14D902
:104BE0007B681B689B6803F00103012B0DD17B6878
:104BF0009B6A43F010027B689A627B68DB6A43F031
:104C000001027B68DA62012307E07B681B689B680E
:104C100003F00103012BDCD0002318461037BD46FA
:104C200080BD80B584B000AF78607B685B6AFB6054
:104C3000FB689B6A03F05003002B27D1FB689B6A3B
:104C400043F40072FB689A62FB681B689B6803F47C
:104C50006023B3F5602F15D1FB681B7B002B11D1AE
:104C6000FB689B6A23F48072FB689A62FB689B6A0C
:104C700003F48053002B05D1FB689B6A43F00102CB
:104C8000FB689A62F868FFF7A9FD04E0FB681B6AFD
:104C90001B6B7868984700BF1037BD4680BD80B554
:104CA00084B000AF78607B685B6AFB60F868FFF7F0
:104CB0009EFD00BF1037BD4680BD80B584B000AFFB
:104CC00078607B685B6AFB60FB689B6A43F040022C
:104CD000FB689A62FB68DB6A43F00402FB68DA62F5
:104CE000F868FFF796FD00BF1037BD4680BD000095
:104CF00090B587B000AF78600023FB750023FB60A0
:104D00007B6893F82430012B01D1022395E07B6866
:104D1000012283F824207868FFF742FF0346FB75E1
:104D2000FB7D002B40F084807B689B6A23F48853D2
:104D300023F0020343F002027B689A62414B1C6835
:104D4000022004F0FBFA0346B4FBF3F35B00FB60C4
:104D500002E0FB68013BFB60FB68002BF9D178683F
:104D6000FFF7C4FE7B681B689A687B681B6842F08B
:104D700008029A60FEF762FD38611BE0FEF75EFDF7
:104D800002463B69D31A0A2B14D97B681B689B68BF
:104D900003F00803002B0DD07B689B6A23F01203FD
:104DA00043F010027B689A627B68002283F824201B
:104DB000012342E07B681B689B6803F00803002B1B
:104DC000DCD17B681B689A687B681B6842F0040230
:104DD0009A60FEF733FD38611BE0FEF72FFD0246B7
:104DE0003B69D31A0A2B14D97B681B689B6803F0B4
:104DF0000403002B0DD07B689B6A23F0120343F061
:104E000010027B689A627B68002283F824200123C9
:104E100013E07B681B689B6803F00403002BDCD164
:104E20007B689B6A23F0030343F001027B689A626C
:104E30007B68002283F82420FB7D18461C37BD4682
:104E400090BD00BF3400002080B584B000AF786012
:104E50000023FB737B6893F82430012B01D10223DC
:104E600070E07B68012283F824207868FFF73EFE1B
:104E70000346FB73FB7B002B5FD17B689B6A23F4AB
:104E8000405323F0010343F480527B689A627B68AD
:104E90001B682E4A934205D12D4B5B6803F47023A7
:104EA000002B06D17B689B6A23F480127B689A6290
:104EB00005E07B689B6A43F480127B689A627B689A
:104EC0009B6A03F48073002B02D17B680022DA62B4
:104ED0007B68002283F824207B681B686FF0040243
:104EE0001A607B681B685B6803F48063002B28D121
:104EF0007B681B689B6803F4E043B3F5E04F13D174
:104F00007B681B68114A934205D1114B5B6803F41F
:104F10007023002B08D17B681B689A687B681B682C
:104F200042F402129A600CE07B681B689A687B6806
:104F30001B6842F400429A6003E07B68002283F819
:104F40002420FB7B18461037BD4680BD0028014059
:104F50000024014080B584B000AF78600023FB736B
:104F60007B6893F82430012B01D1022330E07B6869
:104F7000012283F824207B689B6A03F48073002B52
:104F800019D17B681B685B6803F48063002B12D126
:104F90007868FFF705FE0346FB73FB7B002B12D1FD
:104FA0007B689B6A23F4885323F0010343F00102DA
:104FB0007B689A6207E07B689B6A43F020027B680B
:104FC0009A620123FB737B68002283F82420FB7B19
:104FD00018461037BD4680BD90B587B000AF7860E9
:104FE00039600023FB6000237B61FEF727FC3861FA
:104FF0007B681B689B6B03F44013002B2AD121E0D4
:105000003B68B3F1FF3F1DD03B68002B07D0FEF794
:1050100015FC02463B69D31A3A689A4212D27B6861
:105020001B681B6803F00403002B0BD17B689B6A91
:1050300043F004027B689A627B68002283F8242094
:105040000323B1E07B681B681B6803F00403002B9B
:10505000D6D070E0564B1C68022004F06FF903466E
:10506000B4FBF3F27B681B681969524B0B40002BB1
:1050700018D17B681B68D9684F4B0B40002B11D1AE
:105080007B681B6819694D4B0B40002B08D17B686E
:105090001B68D9684A4B0B40002B01D1142320E038
:1050A00029231EE07B681B681969444B0B40002BC9
:1050B00006D17B681B68D968414B0B40002B0DD093
:1050C0007B681B6819693F4B0B40002B08D17B683C
:1050D0001B68D9683B4B0B40002B01D1542300E0E7
:1050E000FC2302FB03F37B6121E03B68B3F1FF3F4C
:1050F0001AD03B68002B07D0FEF7A0FB02463B69A5
:10510000D31A3A689A420FD2FB687A699A420BD94D
:105110007B689B6A43F004027B689A627B6800228A
:1051200083F8242003233FE0FB680133FB60FB6826
:105130007A699A42D9D87B681B686FF00E021A60B0
:105140007B689B6A43F400527B689A627B681B68A9
:105150009B6803F4E043B3F5E04F12D07B681B6813
:105160005B6803F48063002B1DD17B681B689B6820
:1051700003F46023B3F5602F15D17B681B7B002BF4
:1051800011D17B689B6A23F480527B689A627B68AA
:105190009B6A03F48073002B05D17B689B6A43F004
:1051A00001027B689A62002318461C37BD4690BDF9
:1051B0003400002024499224244992009224491268
:1051C000922449004992240080B584B000AF7860F1
:1051D0000023FB737B6893F82430012B01D1022359
:1051E00078E07B68012283F824207868FFF77EFC52
:1051F0000346FB73FB7B002B67D17B689B6A23F420
:10520000405323F0010343F480527B689A627B6829
:105210001B68324A934205D1314B5B6803F470231B
:10522000002B06D17B689B6A23F480127B689A620C
:1052300005E07B689B6A43F480127B689A627B6816
:105240009B6A03F48073002B02D17B680022DA6230
:105250007B68002283F824207B681B686FF00402BF
:105260001A607B681B685A687B681B6842F0800282
:105270005A607B681B685B6803F48063002B28D14D
:105280007B681B689B6803F4E043B3F5E04F13D1E0
:105290007B681B68114A934205D1114B5B6803F48C
:1052A0007023002B08D17B681B689A687B681B6899
:1052B00042F402129A600CE07B681B689A687B6873
:1052C0001B6842F400429A6003E07B68002283F886
:1052D0002420FB7B18461037BD4680BD00280140C6
:1052E0000024014080B584B000AF78600023FB73D8
:1052F0007B6893F82430012B01D1022338E07B68CE
:10530000012283F824207B689B6A03F48073002BBE
:1053100021D17B681B685B6803F48063002B1AD182
:105320007868FFF73DFC0346FB73FB7B002B1AD12B
:105330007B681B685A687B681B6822F080025A6091
:105340007B689B6A23F4885323F0010343F0010236
:105350007B689A6207E07B689B6A43F020027B6867
:105360009A620123FB737B68002283F82420FB7B75
:1053700018461037BD4680BD80B592B000AFF860CA
:10538000B9607A60002387F8473007F114033022B0
:10539000002118460FF0FAFBFB6893F82430012B2C
:1053A00001D102238FE0FB68012283F82420484BBF
:1053B0007B617B699B6803F46023B3F5602F0BD09E
:1053C000FB689B6A43F02002FB689A62FB6800223C
:1053D00083F82420012376E0F868FFF787FB034673
:1053E00087F8473097F84730002B07D107F11403AF
:1053F0001846FFF77BFB034687F8473097F847309E
:10540000002B5AD1FB689A6A324B134043F48072E6
:10541000FB689A62FB681B685B6803F48063002B7F
:1054200007D0FB689B6A23F4405343F48052FB6827
:105430009A62FB68002283F82420FB680022DA626B
:10544000FB681B6A244A9A62FB681B6A234ADA6279
:10545000FB681B6A224A1A63FB681B686FF0020232
:105460001A60FB681B689A68FB681B6842F48072CC
:105470009A60FB68186AFB681B684C331946BA6867
:105480007B6800F087FEFB681B689B6803F4602361
:10549000B3F5602F08D1FB681B689A68FB681B682E
:1054A00042F4A0029A600CE0FB681B689A68FB68F3
:1054B0001B6842F480129A6003E0FB68002283F8C4
:1054C000242097F8473018464837BD4680BD00BFB6
:1054D00000280140FEFCEFFF234C00089F4C000811
:1054E000BB4C000880B590B000AF7860002387F80F
:1054F0003F3007F10C033022002118460FF046FB25
:105500007B6893F82430012B01D102234FE07B68A4
:10551000012283F824207868FFF742FB034687F8CE
:105520003F3097F83F30002B3BD1234BFB6007F116
:105530000C031846FFF734FB034687F83F3097F813
:105540003F30002B0BD07B689B6A43F010027B68D6
:105550009A627B68002283F82420012327E07B687D
:105560001B689A687B681B6822F480729A607B686B
:105570001B685A687B681B6822F470225A607B683B
:105580001B6A184600F065FE034687F83F307B68CB
:105590009B6A23F4885323F0010343F001027B68E4
:1055A0009A627B68002283F8242097F83F301846DF
:1055B0004037BD4680BD00BF0028014080B485B0A3
:1055C00000AF786039600023FB603B68042B09D092
:1055D0003B68042B15D83B68022B0DD03B68032B8E
:1055E00005D00EE07B681B689B6CFB600EE07B685F
:1055F0001B685B6CFB6009E07B681B681B6CFB60D5
:1056000004E07B681B68DB6BFB6000BFFB6818462F
:105610001437BD4680BC704780B485B000AF786059
:105620000023FB607B681B68DB6CFB60084B9B689E
:1056300003F48073002B05D1064BDB6C1B04FA6866
:105640001343FB60FB6818461437BD4680BC7047A7
:10565000002401400028014080B483B000AF78608E
:1056600000BF0C37BD4680BC7047000090B484B0CA
:1056700000AF786039600023FB730023BB607B6858
:1056800093F82430012B01D102237DE17B680122B4
:1056900083F824207B689B68002B19D13B685B68EA
:1056A000012B0CD17B681B689B6B9B0D9B053A689B
:1056B0001268D1037A6812680B4393634FE07B68EA
:1056C0009B6A43F020027B689A620123FB7346E0E9
:1056D0003B685A683B681B699A422AD87B681B68FA
:1056E000996B3B685A683B681B69D21A13469B004A
:1056F00013440F331F2202FA03F343F44013DB4336
:1057000019403B681B69013B18053B681C683B68F6
:105710005A683B681B69D21A13469B0013440F3327
:1057200004FA03F340EA03027B681B680A439A63A6
:1057300015E07B681B68996B3B685A683B681B697E
:10574000D21A13469B0013440F331F2202FA03F3AD
:1057500043F44013DA437B681B680A409A637B6812
:105760001B689B6803F00103012B0CD07B681B684E
:105770009B6823F4E04323F001033A6891697A6857
:1057800012680B4393603B685B7D012B15D13B682E
:105790009B69B3F5E04F08D17B681B685A687B684A
:1057A0001B6842F480625A6007E07B689B6A43F0A2
:1057B00020027B689A620123FB733B681B7D012BEF
:1057C00014D13B685B7D002B08D17B681B685A684D
:1057D0007B681B6842F480525A6007E07B689B6AD2
:1057E00043F020027B689A620123FB733B681B68CD
:1057F000092B1CD97B681B68D9683B681A6813465B
:105800005B0013441E3B072202FA03F3DB431940FB
:105810003B6898683B681A6813465B0013441E3B5C
:1058200000FA03F27B681B680A43DA6019E07B68C0
:105830001B6819693B681A6813465B00134407220A
:1058400002FA03F3DB4319403B6898683B681A6827
:1058500013465B00134400FA03F27B681B680A439B
:105860001A613B681B68102B03D03B681B68112B27
:1058700007D17B681B689A687B681B6842F400024A
:105880009A603B685B68032B22D0032B2ED8012B38
:1058900002D0022B0ED029E07B681B685B6923F4E1
:1058A0007F6323F00F033A68D1687A6812680B436C
:1058B000536129E07B681B689B6923F47F6323F0B5
:1058C0000F033A68D1687A6812680B4393611BE052
:1058D0007B681B68DB6923F47F6323F00F033A685E
:1058E000D1687A6812680B43D3610DE07B681B684E
:1058F0001B6A23F47F6323F00F033A68D1687A6848
:1059000012680B43136200BF3B681B68102B03D067
:105910003B681B68112B32D17B681B681D4A934280
:1059200025D17B681B689B6803F40003002B26D1FC
:105930007B681B689A687B681B6842F400029A6067
:105940003B681B68102B1AD1134B1B68134AA2FB30
:1059500003239A0C13469B0013445B00BB6002E0D8
:10596000BB68013BBB60BB68002BF9D107E07B68DB
:105970009B6A43F020027B689A620123FB737B6879
:10598000002283F82420FB7B18461037BD4690BCCC
:10599000704700BF002401403400002083DE1B4319
:1059A00080B590B000AF78603960002387F83F3051
:1059B00007F10C033022002118460FF0E7F87B684E
:1059C00093F82430012B01D1022332E07B680122BD
:1059D00083F82420194BFB607B681B689B6803F0ED
:1059E0000103012B16D0FB689B6803F00103012B18
:1059F00010D07B681B68124A93420BD17B681B68EE
:105A00005B6823F470213B681A687B681B680A4353
:105A10005A6008E07B689B6A43F020027B689A62C8
:105A2000012387F83F307B68002283F8242097F811
:105A30003F3018464037BD4680BD00BF00280140BA
:105A40000024014080B485B000AF78607B6803F02B
:105A50000703FB600C4BDB68BB60BA684FF6FF03C3
:105A60001340BB60FB681A02BB68134343F0BF637B
:105A700043F40033BB60044ABB68D36000BF1437F3
:105A8000BD4680BC704700BF00ED00E080B400AFB1
:105A9000044BDB681B0A03F007031846BD4680BCB5
:105AA000704700BF00ED00E080B483B000AF034654
:105AB000FB7197F90730002B0BDBFB7903F01F021A
:105AC000064997F907305B09012000FA02F241F814
:105AD000232000BF0C37BD4680BC704700E100E0CA
